:400000000080002011000000C1050000C105000008B5044B1A6803F53F5302331A6000F0EFFA00BFFA46004010B5054C237833B9044B13B10448AFF300800123237010BD02
:400040003881FF1F00000000F8140000084B10B51BB108490848AFF300800848036803B910BD074B002BFBD0BDE81040184700BF000000003C81FF1FF8140000C880FF1F0A
:400080000000000008B562B600F032FB00F05CFB00F086FB00F0B0FB00F0EEF800F016FC00F066FD00F032FD00F050F8FCE700BF00B585B0084B53F82120084B19680291A7
:4000C000596801919B68009303460549002000F0FBF805B05DF804FBFC1400005481FF1F0815000038B504460D4600F0B1F820B9094A13680133136038BDA54205D1064AE1
:40010000936801339360012038BD034A536801335360022038BD00BF5481FF1F10B5044600F086FD204010BD08B500F007F9002000F088F808BD00BF38B5054600F00CF932
:40014000044600F085F82870204638BD70B582B000248DF807402C49204600F0B5F82346264625460A2BFDD8DFE803F0060C10191F262C333940480000F06AF80028FBD02D
:400180000123EFE700F08AF80223EBE70320FFF7C5FF441CE0B200F0C7F80323E2E70120FFF7BCFF441C0423DCE744EA0410C0B200F078F80523D5E700F0E6FA00F010FB90
:4001C0000623CFE7FFF7B0FF012000F0ADF80723C8E700F0DFFA00F009FB0823C2E70DF10700FFF7A9FF05460923BBE79DF807102046FFF777FF06460A23B3E73146284629
:40020000FFF756FF0123ADE75C15000008B500F09DF8034B1B7813B90122014B1A7008BD6081FF1F08B500F091F8034B1B7813B90222014B1A7008BD6081FF1F704700BF87
:40024000704700BF014B1870704700BF6081FF1F014B1878704700BF6081FF1F10B50C4600F0D8FA04F00F04024B185D00F0EEFB002010BDB015000008B5012000F0D6FAA3
:40028000002000F0C7FA002000F0E0FB012000F0C1FA002000F0DAFB002008BD08B5FFF7EBFF08BD10B5044600F00F010020FFF7D5FF21090120FFF7D1FF002010BD00BFD4
:4002C00008B500F049FB08BD0EB430B59AB01DAC54F8045B6422002101A800F0A0FC00942246294601A800F0F5FC01A8FFF7E8FF1AB0BDE8304003B0704700BF094B1B68AD
:40030000B3F57A7F05D3074B00221A605A6801325A60044B1A6801321A609A6801329A60704700BF6481FF1F0022034B5A60024B5B689842FBD870476481FF1F024B002271
:400340009A60DA60704700BF6481FF1F014B9A68DA6070476481FF1F014BD868704700BF6481FF1FFEE700BFF0B40022174611E050F82760F3B226F0FF0608E001EB420527
:4003800011F812406D78A5550132013BDBB2002BF4D10137162FEBD9F0BC7047064B1B78DBB203F00701054A11701B09013213704422034B1A707047CF0100496E58004049
:4003C0007658004008B50A46002100F028FC08BD38B50122254B1A801823254A1370192502321580023213700222224B1A7008224FF040231A70032103F5007319701E4BF1
:400400001B78DBB21D490B701D4B1A8041F25122023B1A8000240CE01A4B1B7803F0010343EA440404F003044FF4F07000F0B0FB013D0DB1032CEFD115B90320FFF792FF2C
:40044000114B4FF480721A8007221A7000220F490A704820023108701A700222033B1A700B4A137843F00303137038BD80400040824000400043004008010049A146004092
:4004800022420040254200400440004006400040A243004008B500F0B7FB08BD38B572B600240CE0344D630019194A0011462A44084691882858FFF785FF0134E4B2072CF5
:4004C000F0D900240BE02C49A3001819420088180622416B006BFFF7DDFF0134E4B2002CF1D026494FF09040FFF73EFF244A137843F0020313701032137843F00203137043
:40050000204C237843F040032370A2F58632513A137843F01003137008221B491B48FFF7B9FF0A221A491B48FFF7B4FF08221A491A48FFF7AFFF082219491A48FFF7AAFF23
:40054000082219491948FFF7A5FF194A137843F008031370174D61232B70FFF739FF81232B700122144B1A70FFF718FF0E2221461248FFF78FFF38BDC41500005C00004855
:4005800003500140A0430040D403004802510040DC030048C0510040E803004812510040F003004822510040F803004832510040224300400048004004000840B0430040E4
:4005C00008B500F0F5FA03680C2B00D1FEE7FEE708B5094B1A681044084BC31A802B02DC054B186005E000F0E3FA0C2303604FF0FF32104608BD00BFCC80FF1F9881FF1F8B
:4006000008B5104E104D16E029686B68AC68002204E051F8040B43F8040B0432A242F8D1E868002203E0002143F8041B04328242F9D11035013E002EE6D100F0BFFAFFF7AD
:4006400021FDFEE7010000005816000008B5104A104B1A60104A136843F40073136000230AE0032B03D80D4A52F8231000E00C490C4A42F8231001332F2BF2D90A4B1A7808
:400680000A4B1A70074A0A4B1A60FFF707FF08BD0004FA050CED00E014ED00E000000000C10500000080FF1FBC760040C080FF1F08ED00E008B5FFF7A9FD08BD014B1B68C7
:4006C0001864704708ED00E04001C0B2014B1870704700BF00E400E00122014B1A60704700E100E00122014B1A60704780E100E008B5FFF7F7FF0448FFF7E0FF0720FFF708
:40070000E3FFFFF7E9FF08BDB506000008B5FFF789FD08BD014B1B685864704708ED00E04001C0B2014B1870704700BF01E400E00222014B1A60704700E100E00222014BD0
:400740001A60704780E100E008B5FFF7F7FF0448FFF7E0FF0720FFF7E3FFFFF7E9FF08BD0D07000008B5FFF769FD08BD014B1B689864704708ED00E04001C0B2014B1870CB
:40078000704700BF02E400E00422014B1A60704700E100E00422014B1A60704780E100E008B5FFF7F7FF0448FFF7E0FF0720FFF7E3FFFFF7E9FF08BD6507000008B5FFF72A
:4007C0003FFD08BD014B1B68D864704708ED00E04001C0B2014B1870704700BF03E400E00822014B1A60704700E100E00822014B1A60704780E100E008B5FFF7F7FF044858
:40080000FFF7E0FF0720FFF7E3FFFFF7E9FF08BDBD070000044A137803F0DF03400100F0200018431070704730510040044A137803F0FE0300F0010018431070704700BF1C
:400840001051004008B572220B4B1A702022013B1A700A49042000F0CDF80721042000F0DDF80622064B1A70472210331A70022251331A7008BD00BF8B6500407D090000BC
:400880002865004010B500F08BF904460D4A137843F020031370013A137843F010031370013A137843F0100313701023064A1360A2F5C072136000F08DF8204600F074F9A5
:4008C00010BD00BF9B65004080E200E008B5054B1B7823B9FFF7B6FF0122024B1A70FFF7D1FF08BD7481FF1F164B99785B78DBB2994205D25A1E914214BF0022012204E060
:40090000CA1A0F2A14BF00220122002AECD1994207D10D4B1B7813F0040F02D10B4B187070470F2900D90021094B58540131054B9970054B1B7813F0020F02D01022054B77
:400940001A6070477481FF1F69650040496500408481FF1F00E200E038B5074B1B782BB938BDFFF7C1FF0134A4B201E005460024285D0028F5D138BD7481FF1F13E0104B4D
:400980001B78DBB20F2B02D900220D4B1A700C4A1378DBB20B49CB5CDBB20B490B7013780133DBB21370064B1B78DBB2074A1278934204D0064B1B7813F0040FDFD0704795
:4009C0007581FF1F8481FF1F496500407681FF1F69650040054A137843F0020313701032137843F002031370704700BFA243004001BE704770B504460E46074B1D681F28A0
:400A000002D90020FFF7F4FF04F01F04103455F8240045F8246070BD08ED00E038B504460D46072902D90020FFF7E2FF1F2C02D90020FFF7DDFF04F01F0000F1604000F506
:400A400064406D01EDB2057038BD00BF014B1870704700BF79650040084A137843F0010313701032137843F00103137002F64D32137843F001031370704700BFA3430040BE
:400A8000014B1870704700BF034F0040014B1880704700BF044F0040014B1880704700BF064F004008B5164A137803F0010313700232137803F0FC031370124B1A7802F047
:400AC000CF021A701A7842F030021A701A7802F0F0021A701A7842F00F021A700A4A137843F00103137042F6DF60FFF7CFFF42F6DF60FFF7D1FF0820FFF7C2FF08BD00BF48
:400B0000004F00400B4F0040014F004008B5054B1B7823B9FFF7C6FF0122024B1A70FFF79BFF08BD7881FF1F08B5FFF7E7FB08BD024B1B68C3F88400704700BF08ED00E0AB
:400B40004001C0B2014B1870704700BF11E400E04FF40032014B1A60704700BF00E100E04FF40032014B1A60704700BF80E100E008B5FFF7F5FF0448FFF7DAFF0720FFF760
:400B8000DFFFFFF7E5FF08BD290B0000000000000230800803D000BF01380046FCD17047EFF3108072B6704780F31088704700BF014B1868704700BF3081FF1F0E4B70B5D4
:400BC0001E460E4C0025E41AA410A54204D056F8253098470135F8E700F02CFD084B094C1E46E41AA4100025A54204D056F8253098470135F8E770BD4016000040160000E7
:400C0000401600004816000010B5431E0A44914204D011F8014B03F8014FF8E710BD03460244934202D003F8011BFAE770470000194B10B51C68A36BD3B9182000F054F8F9
:400C400043F20E33A06303804AF6CD33438041F2342383804EF26D63C3804DF6EC630381052343810B23838101220023C0E90423A16B0A4C0B6948695C43094A02FB004095
:400C8000A3FB02230132034443F10003C1E9042323F0004010BD00BF3081FF1F2DF451582D7F954C10B59AB0009104916FF00041029105914FF6FF714FF40274ADF80E10BB
:400CC0006946ADF80C4000F01BF9009B00221A701AB010BD13460A46014602480068FFF7E1BF00BF3081FF1F024B0146186800F04FB800BF3081FF1F38B50546002944D09E
:400D000051F8043C0C1F002BB8BFE41800F0C1FB1E4A1368114613B96360146030E0A3420DD92268A018834201BF18685B681218226063600C6023E0A24203D813465A68DB
:400D4000002AF9D118681918A1420BD12168014458188242196013D110685268014419605A600DE002D90C232B6009E021686018824201BF106852680918216062605C60C4
:400D80002846BDE8384000F085BB38BD8081FF1F70B5CD1C25F0030508350C2D38BF0C25002D064601DBA94202D90C23336046E000F06FFB234B1C681A462146A1B10B68C0
:400DC0005B1B0ED40B2B03D90B60CC18CD501EE08C420BBF63684B681360636018BF0C4615E00C464968E9E7174C23681BB9304600F016FB20602946304600F011FB431CE9
:400E000018D0C41C24F00304A0420DD12560304600F040FB04F10B00231D20F00700C31A0ED05A42E25070BD211A304600F0F8FA0130EBD10C233360304600F02BFB0020EE
:400E400070BD00BF8081FF1F7C81FF1F2DE9F0478E6882469E420C46914698463ED88A8912F4906F3AD02568096902236F1A656905EB450595FBF3F57B1C43449D4238BF01
:400E80001D4653050FD52946FFF782FF064698B13A462169FFF7B8FEA38923F4906343F08003A38113E02A4600F0F5FA064670B921695046FFF720FF0C23CAF80030A38919
:400EC0004FF0FF3043F04003A381BDE8F08726613E44266046466561ED1BA560464528BF464649463246206800F0B8FAA36800209B1BA36023681E442660BDE8F08700003E
:400F00002DE9F04F9DB003938B8980461C060D4616460DD50B695BB94021FFF739FF2860286118B90C23C8F80030CDE040236B610023099320238DF82930DFF89CB13023A1
:400F40008DF82A3037463C4614F8013B1BB9B7EB060910D003E0252BF9D02746F3E74B46324629464046FFF771FF013000F0A780099B4B4409933B78002B00F0A080002317
:400F80004FF0FF3204930793059206938DF853301A930126052221784E4800F051FA671C049B38B14B4A3C46801A06FA00F018430490EFE7D90644BF20228DF853201A0745
:400FC00044BF2B228DF8532022782A2A03D0079A00210A200BE0039A111D12680391002A10DA524243F00200079204900BE027463B780134303B092B03D800FB0232012123
:40100000F5E701B107923B782E2B1ED17B782A2B0AD1039B02371A1D1B680392002BB8BF4FF0FF33059310E0002319460593781C0A2407463A780130303A092A03D804FB27
:4010400001210123F5E703B1059103223978224800F0F6F940B14023CBEB000003FA00F0049B013718430490397806221B487E1C8DF8281000F0E4F988B1194B33B9039BA1
:40108000073323F007030833039314E003AB00932A46144B04A94046AFF3008007E003AB00932A460F4B04A9404600F093F8B0F1FF3F824603D0099B5344099342E7AB8961
:4010C0005B0601D4099801E04FF0FF301DB0BDE8F08F00BF00160000061600000A160000000000004D0E00002DE9F04791461F460A698B6806469342B8BF1346C9F800309C
:4011000091F843200C46DDF8208012B10133C9F800302368990642BFD9F800300233C9F80030256815F0060510D104F1190A07E00123524639463046C04701301AD001353C
:40114000E368D9F800209B1A9D42F1DB94F843302268003318BF012392060FD5E118302081F843005A1C94F845102244023382F8431003E04FF0FF30BDE8F08704F1430235
:4011800039463046C0470130F4D02268D9F80050E36802F00602042A08BF5D1B2269A3680CBF25EAE57500259342C4BF9B1AED184FF000091A344D4509D0012322463946D4
:4011C0003046C0470130D5D009F10109F3E70020BDE8F0872DE9F04317460A7E85B06E2A984606460C460C9B01F1430E00F0AE8011D8632A22D009D8002A00F0BB80582AE3
:4012000040F0CA8081F84520834955E0642A1ED0692A1CD0C0E0732A00F0B08009D86F2A2ED0702A40F0B8800A6842F020020A603EE0752A24D0782A3AD0ADE01A6801F1F5
:401240004205111D1960136884F84230A8E021681A6811F0800F02D0111D196008E011F0400F02F10401196002D0B2F9003000E01368002B3CDA2D225B4284F8432037E0A7
:4012800021681A6811F0800F02D0111D196007E011F0400F02F10401196001D0138800E01368227E5C496F2A14BF0A2208221BE078225A4984F845202268186812F0800FF0
:4012C00000F104051D6003D1550601D5038800E00368D00744BF42F0200222601BB9226822F0200222601022002084F8430001E049490A226568002DA56008DB206820F0AE
:40130000040020602BB9002D7DD175460CE0002B79D07546B3FBF2F002FB1033CB5C05F8013D03460028F5D1082A0BD12368DA0708D5236962689A42DEBF302305F8013CD8
:4013400005F1FF35C5EB0E0323612EE008681A6810F0800F496903D0101D1860136808E010F0400F02F104001860136801D0198000E0196000232361754616E01A68111DDE
:401380001960156800216268284600F059F808B1401B6060636804E004F1420584F8422001232361002384F84330CDF800803B4603AA21463046FFF797FE013002D14FF028
:4013C000FF3026E023692A4639463046C0470130F5D023689B0710D5002504F1190907E001234A4639463046C0470130E7D00135E368039A9B1A9D42F2DBE068039B9842BE
:40140000B8BF184605E00B7804F1420584F842308AE705B0BDE8F083111600002216000038B5064C0023054608462360FFF7D0F8431C02D1236803B12B6038BD9481FF1F48
:4014400010B5C9B202449042034605D01C7801308C42F8D1184610BD002010BD884210B501EB020301D8421E0BE09842FBD28118D21AD34204D013F8014D01F8014DF8E74A
:4014800010BD994204D011F8014B02F8014FF8E710BD70477047F8B5074615460E4621B91146BDE8F840FFF773BC1AB9FFF724FC2846F8BD00F015F885420ED92946384677
:4014C000FFF766FC044650B131462A46FFF79CFB31463846FFF710FC01E03046F8BD2046F8BD51F8040C0028BEBF091851F8043CC018043870470000000000009815000097
:40150000A0150000A8150000257320427574746F6E205072657373207C20546865207265616374696F6E2074696D652069732025756D73207C20436F7272656374202575D9
:40154000207C2057726F6E67202575207C204D69737365642025750A0000000057656C636F6D6520746F20746865205265616374696F6E2047616D650A0A507265737320A3
:401580006120627574746F6E20746F2073746172742E2E2E0A0000004D69737365642000436F72726563740057726F6E672020003F065B4F666D7D077F6F777C395E7971DD
:4015C00000000000004F00400C00405100403000F0510040100000000140001000140140000800400140000A004C0140000200500140200060520040CC03004806004300F3
:40160000232D302B2000686C4C00656667454647003031323334353637383941424344454600303132333435363738396162636465660000F8B500BFF8BC08BC9E46704738
:401640004D0000004D060000F8B500BFF8BC08BC9E4670472900000068160000C880FF1F7000000060000000000000009881FF1F0000000000000000000000000000000037
:4016800000000000000000000000000000000000FE150000000000000000000000000000000000000000000000000000000000000000000000000000000000000000000017
:4016C00000000000000000000000000000000000D080FF1F00000000000000000000000000000000000000000000000000000000000000000000000000000000000000007C
:4017000000000000000000000000000000000000000000000000000000000000000000000000000000000000000000000000000000000000000000000000000000000000A9
:401740000000000000000000000000000000000000000000000000000000000000000000000000000000000000000000000000000000000000000000000000000000000069
:401780000000000000000000000000000000000000000000000000000000000000000000000000000000000000000000000000000000000000000000000000000000000029
:4017C00000000000000000000000000000000000000000000000000000000000000000000000000000000000000000000000000000000000000000000000000000000000E9
:020000040003F7
:0200000480007A
:40000000014F004003520040036500400107014001090140011701406818014047190140631A01404D1B0140064001400C4101400D42014003430140024501400146014001
:400040000247014007480140034901400B4C01400E4D014002500140035101400A36004008C20958890F8A388B72EC10EC10E214048C06130D0A0E0C0F111114130915013C
:4000800017061CD11E0E20D122062420253F2643293F2A082D20303032C03320340F35073718388A3A203E444003470449FF4A074BFF4C404D204EF04F05500858045904DB
:4000C0005A045C115D015F01604061A862406320801484DC850A862287148B158C0C8E718F089010911392AC930C950397149A03A113A304A620A810A920AA40AC09AED055
:40010000B10FB320B41FB510B6E0BA80BB02BF14C043C105C5E0C60BC70CC816C9FFCAFFCBFFCEF0CF44D00CD401D604D804D904DA04DB04DC11DD11DF01E6C0EA40EB029F
:40014000000401800240044409020A040C080E111020120413401502162419901A051B801C441D081E0220082103220824022604270529102B802E402F28300831023705F0
:4001800038443A203B403D40410142204508484049815008524054205624588059095A10638069206A806B60700473098240834085108E01C0ADC28AC477CA75CCC3CE1E4A
:4001C000D043D208D60FD801E002E210E4010201060108010C080F0110011A041E02220226043004320834023601370138803B023E154036410542024404450C460E480532
:4002000049FF4AFF4BFF4C624DA04EF04F41500C5418580459045A045B045C115D115F016640670269106A306B106D106E106F12800282808304840C8508880489188C08FF
:400240008DFF91809433960C97E3993C9A239BC29C1F9D1C9E209FE1A03FA110A403A5C0A640A81CA9E7AA23AB18AC01AD44AE80B0C0B20FB31FB410B538B62CB7C0BA88DC
:40028000BB08BE11D602D712D804D904DB04DC11DD10DF010092031004020581072809100A010B400E2A1020124015461714180419081A011B011C521D401E261F042101C2
:4002C0002341253027112C802D442F0435413604371039403E283F414050412048204A044B4052405B015E04600463026E406F2874807580762877288D40900295409640A7
:400300009B049D08A040A204A728AB40AE08B084B320B404B709C0FFC2EBC4FCCAF0CCF0CEF8D007D20CD641D80CE808EC013148364037043A20CCF0CE1005400B200D086C
:400340005F089D409E209F04A508A640C080C230D680130818801B043F085B089E209F0CAE40AF10C410C610CE80D6409E209F04B4405020D404A420B420EC0865048220E9
:400380008D049E209F04D880E22003049F04C040520A570858015E026320661082018610D407D603D803128076208E809A20AB10AE20B001B60AB708C408DE04E202E80807
:4003C000EC0E10021C0200FF0103040C808000004000000038C0C0004000000080004080800080000000000000FFFF00FE0000000001010001000000042020000000000005
:4004000000000000000000000000000000000000000000000000000000000000000000000000000000000000000000000000000000000000000000000000000000000000BC
:40044000000000000000000000000000000000000000000000000000000000000000000000000000000000000000000000000000000000000000000000000000000000007C
:40048000000000000000000000000000000000000000000000000000000000000000000000000000000000000000000000000000000000000000000000000000000000003C
:4004C00000000000000000000000000000000000000000000000000000000000000000000000000000000000000000000000000000000000000000000000000000000000FC
:0200000490006A
:0400000000004007B5
:0200000490105A
:04000000BC90ACAF55
:0200000490303A
:020000007D7B06
:0200000490402A
:4000000000000000000000000000000000000000000000000000000000000000000000000000000000000000000000000000000000000000000000000000000000000000C0
:400040000000000000000000000000000000000000000000000000000000000000000000000000000000000000000000000000000000000000000000000000000000000080
:400080000000000000000000000000000000000000000000000000000000000000000000000000000000000000000000000000000000000000000000000000000000000040
:4000C0000000000000000000000000000000000000000000000000000000000000000000000000000000000000000000000000000000000000000000000000000000000000
:0200000490501A
:0C00000000012E16106900012E1F8DE477
:00000001FF