:400000000080002011000000650900006509000008B5044B1A6803F53F5302331A6000F0C1FC00BFFA46004010B5054C237833B9044B13B10448AFF300800123237010BDDE
:400040001882FF1F00000000741D0000084B10B51BB108490848AFF300800848036803B910BD074B002BFBD0BDE81040184700BF000000001C82FF1F741D0000C880FF1F3E
:400080000000000008B5002000F02AFF08BD00BF684620F007018D4619B572B6EFF311841E4B1B68DBB20F2B10D9103B23F0030202F1604202F564421168DB0003F018032D
:4000C000E0229A400A4022FA03F306E00F2B03D1134B1B681B0E00E0002383F31188114A136801331360012B01D101F0DFFB62B6FFF7C8FF72B684F3118801F0EBF8094A3E
:400100001368013B13601BB901F0D9FB01F09DFB62B6BDE819408546704700BF04ED00E020ED00E08482FF1F08B562B645F6BF52074B1A60043B1A6842F002021A601A685A
:4001400042F005021A60002001F0B2F9FBE700BF14E000E008B5034A13680133136001F0EDF908BD3482FF1F0020014B186070473482FF1F024B1B6803600020704700BFC7
:400180003482FF1F10B5002407E00B4B53F82430984708B100BFFDE70134012CF5D901F0EBF9022000F058FC01221146002000F019FD01F0C3F910BD781D000010B5044642
:4001C0000D4800F005FA0D4800F002FA0C4800F0FFF90C4800F0FCF9072000F0A7FF04F10C01022000F002FFE06800F0D1FE0123A374002010BD00BF801D0000BC1D0000CF
:40020000DC1D0000181E000010B50446C36813F0040F06D0144800F0DBF9E3780133E37020E013F0010F01D0012904D013F0020F12D0022910D10D4800F0CAF9A06800F083
:40024000CDF90B4800F0C4F9637801336370A36862681344636005E0064800F0B9F9A3780133A370002010BD401E00004C1E0000781E0000801E000038B50446204800F038
:40028000A7F9204800F0A4F9A37C042B02D11E4800F09EF91D4800F09BF9607800F09EF91B4D284600F094F91A4800F091F9A07800F094F9284600F08BF9174800F088F9DD
:4002C000E07800F08BF9284600F082F9134800F07FF960686378B0FBF3F000F07FF9104800F076F90F4800F073F9002020706060A060E0706070A0700323A37438BD00BF02
:40030000801D0000981E0000A81E0000B41E0000B01E0000D01E0000EC1E0000081F0000241F0000281F000010B5044600F0F0F92046FFF7A1FF084800F04AF9032000F0E1
:40034000F5FE04F10C01022000F050FEE06800F01FFE0020A07410BD681F000010B5044601F056FCB0FBF4F304FB1300C0B210BD70B504462B4800F02BF92078013000F067
:400380002DF9294800F024F9284800F021F90225A574012000F0D4FB04F10C063146284600F024FEE06800F0F3FD002242F21071012000F017FC072000F0B8FE012000F000
:4003C000BFFB3146284600F011FEE06800F0E0FDE36813F0040F07D00423A3742046FFF7A3FF002363741AE000F082F90320FFF7B5FF0130C0B200224FF47A7101FB00F1CA
:40040000012000F0EFFB042000F090FE3146022000F0ECFDE06800F0BBFD01236374002070BD00BF901F0000B01E0000A81F000010B5044600224FF47A71012000F0D2FB35
:40044000FFF792FE072000F071FE012000F078FB04F10C01022000F0C9FDE06800F098FD04F10800FFF786FE002010BD10B586B00024019402940394049405949DF81430F6
:40048000012B0FD013B1022B1BD030E000F040F99DF8043013B901A8FFF790FE01A8FFF767FF24E00220FFF759FF0130C4B2204600F040F901A8FFF7BBFF02238DF8153063
:4004C00015E0214601A8FFF79FFE9DF804300133DBB28DF80430042B03D901A8FFF724FF02E000238DF8163000238DF815309DF815308DF81430C1E708B50121022000F05B
:4005000095FD08BD08B50221084600F08FFD08BD08B5012000F0A8F808B1FFF7EDFF022000F0A2F808B1FFF7EDFF08BD684620F007018D4619B572B6EFF311841E4B1B68EE
:40054000DBB20F2B10D9103B23F0030202F1604202F564421168DB0003F01803E0229A400A4022FA03F306E00F2B03D1134B1B681B0E00E0002383F31188114A1368013382
:400580001360012B01D101F091F962B6FFF7C0FF72B684F3118800F09DFE094A1368013B13601BB901F08BF901F04FF962B6BDE819408546704700BF04ED00E020ED00E0AB
:4005C0008482FF1F08B501F073F8002008BD00BF08B501F0B3F8002008BD00BF30B585B000230093019302930393C30B05D040422D238DF80030012400E0002448B927E033
:40060000184981FB0351DB17C3EBA1030132D2B201E022460346002BF2D1013AD2B212E0104B83FB0031C317C3EBA1031D4603EB83035900431A04A91144303301F8103CF0
:400640002846013AD2B2944207D80028E8D104E004AB1C44302304F8103C6846FFF7B8FF05B030BD6766666608B5012802D0022804D007E001F0B6F830B908BD01F0AAF816
:4006800020B908BD002008BD012008BD012008BD10B50C4601F0AEF804F00F04024B185D01F0C0F8002010BDD41F000008B5002001F0A0F8002001F0A9F8012001F09AF82F
:4006C000002001F0A3F8002008BD00BF08B5FFF7EDFF002001F08EF8002001F0A3F8012001F088F8002001F09DF8002008BD00BF08B5002001F07EF8012001F087F80120F6
:4007000001F078F8012001F081F8002008BD00BF08B5FFF7DBFF08BD10B5044600F00F010020FFF7B5FF21090120FFF7B1FF002010BD00BF08B500F00F0343EA0010C0B2F3
:40074000FFF7EAFF002008BDFEE700BFF0B40022174611E050F82760F3B226F0FF0608E001EB420511F812406D78A5550132013BDBB2002BF4D10137162FEBD9F0BC704789
:40078000064B1B78DBB203F00701054A11701B09013213704422034B1A707047CF0100496E5800407658004008B50A46002101F026FA08BD38B51925234B1D801822023358
:4007C0001A70022203F27E231A7008224FF040231A70032103F5007319701C4B1B78DBB21B490B701B4B1A8041F25122023B1A8000240CE0184B1B7803F0010343EA440468
:4008000004F003044FF4F07001F0D6F8013D0DB1032CEFD115B90320FFF796FF0F4B4FF480721A8007221A7000220D490A704820023108701A700222033B1A70094A1378BF
:4008400043F00103137038BD8040004008010049A146004022420040254200400440004006400040A243004008B501F0BDF908BD38B572B600240CE02A4D630019194A0032
:4008800011462A44084691882858FFF78DFF0134E4B2072CF0D924494FF09040FFF756FF224A137843F0020313701032137843F0020313701E4C237843F040032370A2F59D
:4008C0008632513A137843F010031370082219491948FFF7C9FF0A2218491948FFF7C4FF082218491848FFF7BFFF082217491848FFF7BAFF174A137843F008031370164DC7
:4009000061232B70FFF756FF81232B700122134B1A70FFF735FF0E2221461148FFF7A4FF38BD00BFE81F00005C00004803500140A0430040D004004802510040D804004867
:40094000C0510040E404004812510040EC04004832510040224300400048004004000840B043004008B501F013F903680C2B00D1FEE7FEE708B5094B1A681044084BC31A9E
:40098000802B02DC054B186005E001F001F90C2303604FF0FF32104608BD00BFCC80FF1F7086FF1F08B5104E104D16E029686B68AC68002204E051F8040B43F8040B0432F8
:4009C000A242F8D1E868002203E0002143F8041B04328242F9D11035013E002EE6D101F0DDF8FFF7A1FBFEE701000000F821000008B5104A104B1A60104A136843F400738B
:400A0000136000230AE0032B03D80D4A52F8231000E00C490C4A42F8231001332F2BF2D90A4B1A780A4B1A70074A0A4B1A60FFF71FFF08BD0004FA050CED00E014ED00E08C
:400A400000000000650900000080FF1FBC760040C080FF1F08ED00E038B5EFF3108572B602284ED82D4B53F82030002B4BD02B4A013B42F820302A4B53F82030032B07D13F
:400A80000222274B43F820200022264B43F8202000F090FC244B1B68002B36D1234B1C6800F066FCB0F1FF3F31D0214B53F82020204B1B689A422CD9B4F1FF3F03D00221B4
:400AC000174A42F824101C4A52F820201343194A13600022124B43F8202000F005FC174B53F820304BB10024144B43F8204040F0004000F0EDFE20460CE000F0E9FE002075
:400B000008E0032006E0042004E0002002E0002000E0002085F3108838BD00BFFC80FF1F9881FF1F5082FF1F8482FF1F8881FF1F9C2100006482FF1F902100003882FF1F80
:400B4000EFF3108272B601283CD803012249CB58002B39D010B400EB40018B001F49CC581F4B03EBC4035968884209D11A4B03EB0013D9681A4B03EBC40461600DE019467C
:400B8000154B03EB0113DB689842F8D1124B03EB0014E46803EB0111CC600F4B03EB0013DC68B4F1FF3F08D00B4B03EB0011896803EB04139C68214499600301002006499C
:400BC000C85005E0032000E0052082F31088704782F3108810BC70473484FF1F4C210000D080FF1FF8B5EFF3108472B6012825D800EB4005AB00184DEB5803EB4306B500EB
:400C0000164E75598D421BD34AB103EB43039E00124B1E44B3689A4214D3954214D3A9B103010F4DEB589BB90301EE180127EF507260013900F086F800200AE0032008E04C
:400C4000082006E0082004E0082002E0082000E0072084F31088F8BD4C2100006C2100003484FF1F18B108B5C368984708BD704708B508B1406800E00020022816D80C4BF4
:400C800053F8203093B10A4A013B42F82030094B53F82030032B07D10222064B43F820200022054B43F8202000F084FB08BD00BFFC80FF1F9881FF1F5082FF1F18B10346A3
:400CC00040689B6801E00023184602281DD80F4A52F82020CAB10E4A52F82010032914D010B50C4C54F820201A4344F820200A4A52F82020134207D0012905D10222044B89
:400D000043F8202000F056FB10BD7047782100009881FF1F5082FF1F4482FF1F80B108B50378012B06D013B1032B06D008BDFFF79FFF08BDFFF7C2FF08BDFFF793FF08BDB5
:400D4000704700BF30B400EB40029300214AD258214B03EBC2035C68B4F1FF3F04D11E4B03EBC20250602DE01C4B03EB04139B6899420AD2184D05EBC2025060174A02EB14
:400D800004125B1A93601DE01C46144B03EB04139A68891ADB68B3F1FF3F05D00F4A02EB031292689142EFD2B3F1FF3F05D00B4A02EB031295686D1A9560084A02EB04148C
:400DC000E0601C46054B03EB00108160C46030BC704700BF4C210000D080FF1F3484FF1F38B5394A02EBC0035C6852F83030013342F8303000EB40018A0034498A589342A5
:400E000003D90022304B43F83020B4F1FF3F59D02F4B03EB04139B68002B4ED1214600E019462B4B03EB0113DB68B3F1FF3F05D0274A02EB03129268002AF1D0244A02EB0B
:400E400001114FF0FF32CA601F4A02EBC0004360B3F1FF3F07D01E4A02EB03139A68013A9A6000E02C4604EB44029300194A13441B7A7BB904EB44029300164A13445A68D4
:400E8000154B53F8223003EB83039A0013481044FFF744FF0E4B03EB0413DD68596821B101392046FFF74EFF03E024010022084B1A51B5F1FF3FD5D138BD054A02EB04146B
:400EC000013BA36038BD00BFD080FF1F6C2100003484FF1F4C210000642100002421000038B5EFF3108572B6002838D1FFF778FF204B1B68002B34D11F4B1C6800F038FA9F
:400F0000B0F1FF3F2FD01D4B53F820201C4B1B689A422AD9B4F1FF3F03D00221194A42F82410194A52F820201343154A13600022144B43F8202000F0D7F9144B53F82030A2
:400F40004BB10024114B43F8204040F0004000F0BFFC20460AE000F0BBFC002006E0032004E0002002E0002000E0002085F3108838BD00BF8482FF1F8881FF1F9C2100004D
:400F80006482FF1F9881FF1F902100003882FF1FEFF3108372B6114A1168114A126882B9B1F1FF3F0FD00F4A52F821206AB110B40D4C54F8212022EA000044F821000020FB
:400FC00007E0022002E0022000E0012083F31088704783F3108810BC704700BF8881FF1F8482FF1F782100005082FF1F02280FD80B4B53F820306BB10A4B53F82030032BBE
:401000000AD059B1084B53F820300B60002070470320704701207047072070470E207047782100009881FF1F5082FF1F38B5EFF3108472B6022853D8324B53F82030002B44
:4010400050D0314B53F82030032B4DD02F4D55F820200A4345F820202D4A52F82020114244D0012B44D10222274B43F8202000F0A1F9284B1B68002B3CD1274B1D6800F0C2
:4010800077F9B0F1FF3F37D0244B53F82020244B1B689A4232D9B5F1FF3F03D002211A4A42F825101F4A52F8202013431C4A13600022154B43F8202000F016F91A4B53F88C
:4010C00020304BB10025184B43F8205040F0004000F0FEFB284612E000F0FAFB00200EE003200CE001200AE0072008E0002006E0002004E0002002E0002000E0002084F3F9
:40110000108838BD782100009881FF1F5082FF1F4482FF1F8482FF1F8881FF1F9C2100006482FF1F902100003882FF1F38B5EFF3108472B6364B1D68364B1B68002B5DD1FB
:40114000B5F1FF3F5CD0344B53F82530002B59D0324B53F82530034256D1314B43F825000122304B43F825202F4B53F825002F490B6823EA00030B602D4B43F825202D4BA9
:4011800053F82520224B1A6000F0F2F8B0F1FF3F06D0294B53F82020244B1B689A420DD81B4B1868B0F1FF3F03D000221D4B43F8202040F0004000F08BFB1AE00021194A76
:4011C00042F82010184A52F820201343174A136000F08AF8164B53F8203043B10022144B43F8202040F0004000F072FB01E000F06FFB00200A4B43F8250006E0022004E048
:40120000022002E0012000E0002084F3108838BD8881FF1F8482FF1F782100005082FF1F4482FF1F9881FF1F902100006482FF1F3882FF1F8C81FF1F9C21000008B500F074
:4012400053F8084B53F8203043B10022054B43F8202040F00040044B186008BD024B186008BD00BF3882FF1F8882FF1F10B500F07FF8124B1B68B0F1FF3F1AD0104A52F896
:401280002010104A1268914213D9B3F1FF3F03D002240D4941F8234000210B4B43F820100A4B53F820301A43064B1A60FFF7C6FF10BD43F00043064A136010BD8881FF1FEF
:4012C0009C2100006482FF1F9881FF1F902100008882FF1F034B1B6813B10022014B1A60704700BF7882FF1FF0B4184B19880B0A174AD356B3F1FF3F01D1535601E0083352
:401300005BB2144D55F82320134850F82200134E56F8224045F82340114D2F6846F822702A60B4F1FF3F09D10E4A42F82340012202FA03F321EA0301044B19800A4B196856
:401340000A4A42F820101860F0BC70476082FF1F182000004881FF1F1C84FF1FE480FF1F5C82FF1F0881FF1F8881FF1F8C81FF1F0C4B1A88130A0C49CB56B3F1FF3F01D140
:401380008B5601E008335BB2B3F1FF3F06D0074A52F82320064B53F8220070474FF0FF30704700BF6082FF1F182000004881FF1F1C84FF1F30B4144B53F82020134C23689F
:4013C000134951F823502560124C44F823004FF0FF3441F82340104951F82210A1420AD10E4951F820400E480188214301800D4941F8223002E0064840F82130064941F80D
:40140000223030BC704700BFF080FF1F5C82FF1FE480FF1F1C84FF1F0881FF1F9C2100006082FF1F4881FF1F10B150F8210070474FF0FF30704700BF0122014B1A60FEE750
:401440008082FF1F70B50546124B53F8306000241CE0104B03EBC50321465868FFF7E4FF0D4A52F82030013B42F820300B4B53F82030032B07D10222084B43F820200022B1
:40148000074B43F82020FFF795FF0134B442E0D370BD00BF18210000FC80FF1F9881FF1F5082FF1F18B908B5FFF7CCFF08BD7047194B1A4ADA621A4A9A631A4ADA63EFF35E
:4014C000108272B6184B1B6813BB10B5044600F053F8164B1C600122134B1A602046FFF7E1FFFFF745FFB0F1FF3F0ED0104B53F82030104A11680B43136000220E4B43F8E9
:401500002020FFF7F1FE00F0E3F962B6FFF794FF82F31088072070470080FF1F9118000055180000910000008082FF1F5484FF1F902100006482FF1F9881FF1F08B5EFF348
:40154000108272B6094B1968094B1B6833B94FF0FF30084B43F82100002000E0022010B9084600F00EFA82F3108808BD8881FF1F8482FF1FD880FF1F38B50F4B1D68EFF38A
:40158000108472B600F054F90C4A136843F07F4313600B4B6B640B4B1A6822F460421A601A6842F400521A60074A136843F00203136084F3108838BD08ED00E020ED00E009
:4015C0002D05000000E400E000E100E001BE704770B504460E46074B1D681F2802D90020FFF7F4FF04F01F04103455F8240045F8246070BD08ED00E038B504460D460729B0
:4016000002D90020FFF7E2FF1F2C02D90020FFF7DDFF04F01F0000F1604000F564406D01EDB2057038BD00BF08B572220B4B1A702022FD3B1A700A490020FFF7C9FF0721BF
:401640000020FFF7D9FF0622064B1A70472210331A700222B13B1A7008BD00BF88650040611700002965004010B500F0ADF904460D4A137843F020031370FD3A137843F05D
:4016800010031370033A137843F0100313700123064A1360A2F5C072136000F08DF8204600F096F910BD00BF9865004080E200E008B5054B1B7823B9FFF7B6FF0122024BE4
:4016C0001A70FFF7D1FF08BD6C82FF1F164B99785B78DBB2994205D25A1E914214BF0022012204E0CA1A0F2A14BF00220122002AECD1994207D10D4B1B7813F0040F02D15B
:401700000B4B187070470F2900D90021094B58540131054B9970054B1B7813F0020F02D00122054B1A6070476C82FF1F68640040486400405886FF1F00E200E038B5074BE9
:401740001B782BB938BDFFF7C1FF0134A4B201E005460024285D0028F5D138BD6C82FF1F13E0104B1B78DBB20F2B02D900220D4B1A700C4A1378DBB20B49CB5CDBB20B49A7
:401780000B7013780133DBB21370064B1B78DBB2074A1278934204D0064B1B7813F0040FDFD070476D82FF1F5886FF1F486400406E82FF1F68640040054A137843F001036A
:4017C00013701032137843F001031370704700BFA2430040024B1878C0F30010704700BF01510040024B1878C0F3C000704700BF01510040044A137803F0DF03400100F065
:40180000200018431070704730510040044A137803F0FE0300F0010018431070704700BF10510040014B1870704700BF7965004018484FF47F0102680A43026016486FF024
:401840007F4102680A400260704714484FF080510160704772B611484FF000610160FFF705FD0F48006800F0D3F858B10C4800684FF080730B4A0C490FB40FB46FF00600D7
:40188000004700BF6FF0060062B6004762B600DF08B0704720ED00E01CED00E004ED00E08882FF1FD11800008D180000EFF30880054908600548006880F3088870470248C2
:4018C000006880F308887047B081FF1FA481FF1F411C8900154A11440968154A136899421AD0F0B444464D4656465F46F0B400B5104C9B002344EFF308851D6011608900EB
:401900002144096881F3088802BC8E46F0BCA046A946B246BB46F0BC002806DB00B500F06BF802BC8E46FFF7D3BF7047C02100006882FF1FA881FF1FF0B444464D465646A6
:401940005F46F0B400B5EFF3038308B48000174901440968164A0244EFF30883136088471448804704BC4FF08070024382F3038801BC8646F0BCA046A946B246BB46F0BC54
:40198000704780000A4901440A6882F3088804BC4FF08070024382F3038808BC9E46F0BCA046A946B246BB46F0BC7047A82100002884FF1FD91900000230800803D000BF57
:4019C00001380046FCD17047EFF3108072B6704780F31088704700BF08B572B6014B1868FFF7CFFF8881FF1F08B5024B1868FFF7A3FF08BD8881FF1F08B562B6FFF7F4FFAA
:401A000072B600F041F8014B186808BD8882FF1F00280BDA20F000400130054B53F82000044B1B68181A18BF0120704701207047C02100006882FF1F054B53F82020054BB4
:401A400053F820309A4201D10120704700207047FC80FF1F8421000008B5FFF745FC084B53F8203043B10022054B43F8202040F00040044B186008BD024B186008BD00BF27
:401A80003882FF1F8882FF1F38B5364B1C680022354B1A60354A52F82430013342F82430334B53F824502046FFF7C6FF012801D0A54204D103222F4B43F8242003E0022200
:401AC0002C4B43F824202C4B53F824102B4A136823EA010313602A4B53F82440214B1C60B5F1FF3F0FD0234B53F82530032B07D10222204B43F825200022224B43F8252085
:401B00002846FFF757FCFFF733FCB0F1FF3F0BD1B4F1FF3F03D00022164B43F8242044F00044194B1C6038BD184B53F82020134B1B689A4208D800220E4B43F8242044F050
:401B40000044114B1C6038BD00210A4A42F82010094A52F820201343084A1360FFF77CFF38BD00BF8881FF1F7882FF1FFC80FF1FD880FF1F9881FF1F902100006482FF1F1D
:401B80008C81FF1F5082FF1F8882FF1F9C210000014B1868704700BF1482FF1F0E4B70B51E460E4C0025E41AA410A54204D056F8253098470135F8E700F00CFB084B094C2B
:401BC0001E46E41AA4100025A54204D056F8253098470135F8E770BDE0210000E0210000E0210000E821000010B5431E0A44914204D011F8014B03F8014FF8E710BD03466F
:401C00000244934202D003F8011BFAE770470000194B10B51C68A36BD3B9182000F032F843F20E33A06303804AF6CD33438041F2342383804EF26D63C3804DF6EC6303817A
:401C4000052343810B23838101220023C0E90423A16B0A4C0B6948695C43094A02FB0040A3FB02230132034443F10003C1E9042323F0004010BD00BF1482FF1F2DF45158D8
:401C80002D7F954C024B0146186800F003B800BF1482FF1F70B5CD1C25F0030508350C2D38BF0C25002D064601DBA94202D90C23336046E000F05CF8234B1C681A4621469C
:401CC000A1B10B685B1B0ED40B2B03D90B60CC18CD501EE08C420BBF63684B681360636018BF0C4615E00C464968E9E7174C23681BB9304600F02CF820602946304600F06D
:401D000027F8431C18D0C41C24F00304A0420DD12560304600F02DF804F10B00231D20F00700C31A0ED05A42E25070BD211A304600F00EF80130EBD10C233360304600F0A9
:401D400018F8002070BD00BF7482FF1F7082FF1F38B5064C0023054608462360FEF70AFE431C02D1236803B12B6038BD6886FF1F7047704700000000C5050000CD060000A0
:401D80003D3D3D3D3D3D3D3D3D3D3D3D3D3D3D3D3D3D3D3D3D3D3D3D3D3D3D3D3D3D3D3D3D3D3D3D3D3D3D3D3D3D3D3D3D3D3D3D3D3D3D3D3D3D3D3D3D0A000057656C63F9
:401DC0006F6D6520746F20546865205265616374696F6E2047616D65210A00003D3D3D3D3D3D3D3D3D3D3D3D3D3D3D3D3D3D3D3D3D3D3D3D3D3D3D3D3D3D3D3D3D3D3D3DB0
:401E00003D3D3D3D3D3D3D3D3D3D3D3D3D3D3D3D3D3D3D3D3D0A0A00507265737320616E7920627574746F6E20746F207374617274207468652067616D652E2E2E0A0A0052
:401E4000546F6F20736C6F770A0A0000436F727265637420627574746F6E2070726573736564207C205265616374696F6E2054696D652069732000006D730A0A00000000E3
:401E800057726F6E6720627574746F6E20707265737365640A0A000047616D652053756D6D6172793A0A000054696D656F7574210A000000436F72726563742062757474A0
:401EC0006F6E2070726573736573203A2000000057726F6E67202020627574746F6E2070726573736573203A200000004D69737365642020627574746F6E20707265737330
:401F00006573203A200000004176657261676520205265616374696F6E2054696D65203A200000006D730A003D3D3D3D3D3D3D3D3D3D3D3D3D3D3D3D3D3D3D3D3D3D3D3D54
:401F40003D3D3D3D3D3D3D3D3D3D3D3D3D3D3D3D3D3D3D3D3D3D3D3D3D3D3D3D3D3D3D3D3D0A0A0A000000007072657373206F6E65206F66207468652074776F206275749C
:401F8000746F6E7320746F2065786974210A0A005265616374696F6E2047616D65202D20526F756E642000007072657373206F6E65206F66207468652074776F206275741D
:401FC000746F6E7320746F2073746172742E2E2E0A0000003F065B4F666D7D077F6F777C395E797100000000205100401000405100403000F05100401000000001400010EC
:4020000000140140000800400140000A004C01400002005001402000FF000101020202020303030303030303040404040404040404040404040404040505050505050505EF
:4020400005050505050505050505050505050505050505050505050506060606060606060606060606060606060606060606060606060606060606060606060606060606F8
:402080000606060606060606060606060606060606060606060606060707070707070707070707070707070707070707070707070707070707070707070707070707070778
:4020C0000707070707070707070707070707070707070707070707070707070707070707070707070707070707070707070707070707070707070707070707070707070720
:4021000007070707070707070707070707070707070707070707070701000000202100000000000000000000010000000000000000000000FFFFFFFF0100000002000000B5
:402140000400000000000000FFFFFFFF0000000000000000000000000000000001000000000000000000000001000000102700000000000001000000000000000000000025
:402180000100000001000000010000000100000080000000020000008000000001000000020000008000000085010000550100006D040000E9190000E9190000E919000043
:4021C0000000000000000000000000000100000043000000F8B500BFF8BC08BC9E4670474D000000F1090000F8B500BFF8BC08BC9E4670472900000008220000C880FF1F9D
:402200005001000058040000000000007086FF1F00000000FFFFFFFFFFFFFFFFFFFFFFFFFFFFFFFF0100000002000000FFFFFFFF00000000010000000700000001000000E5
:402240000100000001000000FFFFFFFFFFFFFFFFFFFFFFFFFFFFFFFFFFFFFFFFFFFFFFFFFFFFFFFFFFFFFFFFFFFFFFFFFFFFFFFFFFFFFFFFFFFFFFFFFFFFFFFFFFFFFFFF94
:40228000FFFFFFFFFFFFFFFFFFFFFFFFFFFFFFFFFFFFFFFFFFFFFFFFFFFFFFFFFFFFFFFFFFFFFFFFFFFFFFFFFFFFFFFFFFFFFFFFFFFFFFFFFFFFFFFFFFFFFFFFFFFFFFFF5E
:4022C000FFFFFFFFFFFFFFFFFFFFFFFFFFFFFFFFFFFFFFFFFFFFFFFF0300000003000000030000005886FF1F00000000F483FF1F000000000000000000000000000000005C
:402300000000000000000000000000000000000000000000D021000000000000000000000000000000000000000000000000000000000000000000000000000000000000AC
:402340000000000000000000000000000000000000000000B481FF1F000000000000000000000000000000000000000000000000000000000000000000000000000000000A
:40238000000000000000000000000000000000000000000000000000000000000000000000000000000000000000000000000000000000000000000000000000000000001D
:4023C00000000000000000000000000000000000000000000000000000000000000000000000000000000000000000000000000000000000000000000000000000000000DD
:40240000000000000000000000000000000000000000000000000000000000000000000000000000000000000000000000000000000000000000000000000000000000009C
:40244000000000000000000000000000000000000000000000000000000000000000000000000000000000000000000000000000000000000000000000000000000000005C
:020000040003F7
:0200000480007A
:40000000045200400264004001650040010301400105014002070140420801403C090140380A0140320B0140010D014043180140431901404C1A0140431B014003400140A4
:400040000741014004420140054301400B4C01400D4D014004500140015101400868093461806440880F8B388872E404E404E602EE040703080109030B0C0D08110F150CD0
:40008000160119041D0C1E011F032103220124012501290F2C022D0230013402350F3B203E1140264103460C47EB483449FF4AFF4BFF4EF04F44500C54015604580459040C
:4000C0005A045B045F0166C06A406B02860889019502960599019C0A9E04A003A204A403A604A803AA0CAF01B20FB503B920BA08D804D904DF010220042006040840091869
:400100000B040C480F02101012441412164118201E882220251027042B012D182E4130183524368238203C403D283E08441046044C08564157085C025E885F106740874017
:40014000904C911097049D249E0A9F04A101A202A681A742AA04B140B304C044C2A5C4BECAF8CCF6CE74D060D220D6F0D8800001050108011301150128012C012F013401C7
:40018000350139203E10580459045F018004821884188502870C8808890E8C108D08910C92029302941C950C9A049B019E02A01CA10CA302A401A702A801A904AC18AE0404
:4001C000AF01B10EB202B301B401B61CB820BB22BE14BF04D418D804D904DB04DF0102C003840441052406020E250F801130120214281640174018041E091F042220240860
:400200002518261227402A402D202E0C2F82320233043504362238083C403D223E013F04450846205E026540662080208C018F049808C0FAC2F0C4F3CAF8CCE3CE72D680DF
:40024000D830800804010518060209070B181004111912021302151F18071B061C021D191E051F0421102407270129082D013607371F3B8056025712580459045B045F01B2
:40028000860C89038C0C8E039603970199039E08A401A60EA801AA06AD02B00FB703B980BA02BF40C005C540C9FFCA07CBFFCC40CD20CEF0CF05D008D804D904DA04DB04B0
:4002C000DF01E040E1A8E240E320004002E0050809080B010E4510101204170418401B011E01200226802B012D602E022F10301831103501368A372038203C083D204801C5
:400300004B014C044E08500851085C0469266A806E046F05708072287404752476028208902C96419A049C109D2C9E02A111A222A308A408A50CA681A743B240B310C0254F
:40034000C2D5C426CAF8CCF6CE64D208D640E40105100603070C0C060D1C0E010F021008130315141601190C1B11211022022509260627102A053008311F34073A203E01B5
:40038000580459045F01826085018660880690449101920A9460950198069C609E10A260A860AC22AE0DB006B260B301B401B618BE40C023C106C204C401C60CC7E0C8244A
:4003C000C9FFCAFFCBFFCC62CDA0CEF0CF41D00CD804D904DA04DF01E640E702E910EA30EB10ED10EE10EF12004405010724090A0E450F1010501224130115401640171057
:40040000180419121D841E401F10210225042720285031123308370538403A043E04459547104C044F105742810682018D4890489205930195409640972099019A449B05B5
:400440009D189F20A119A220A308A504A601A742AC80AD04B111B660C075C2FCC4DECA03CCC7CE4AD0F0D220E404E808EC0232203680CC3005100A208110A6A0C080C21042
:40048000E42082109220A6A0E4208620A620AA80E640EE205080562059045B405F04634066088340D407D603D8031280700180018E80AE28B344B480B504C408DC01E20203
:4004C000E80CEC0600010C0110011C01000F0000180000000000000080004080800080000000000000FFFF00FE000000002020000000000000000000000000000000000037
:4005000000000000000000000000000000000000000000000000000000000000000000000000000000000000000000000000000000000000000000000000000000000000BB
:40054000000000000000000000000000000000000000000000000000000000000000000000000000000000000000000000000000000000000000000000000000000000007B
:40058000000000000000000000000000000000000000000000000000000000000000000000000000000000000000000000000000000000000000000000000000000000003B
:4005C00000000000000000000000000000000000000000000000000000000000000000000000000000000000000000000000000000000000000000000000000000000000FB
:0200000490006A
:0400000000004007B5
:0200000490105A
:04000000BC90ACAF55
:0200000490303A
:0200000011B33A
:0200000490402A
:4000000000000000000000000000000000000000000000000000000000000000000000000000000000000000000000000000000000000000000000000000000000000000C0
:400040000000000000000000000000000000000000000000000000000000000000000000000000000000000000000000000000000000000000000000000000000000000080
:400080000000000000000000000000000000000000000000000000000000000000000000000000000000000000000000000000000000000000000000000000000000000040
:4000C0000000000000000000000000000000000000000000000000000000000000000000000000000000000000000000000000000000000000000000000000000000000000
:0200000490501A
:0C00000000012E16106900012E24221CA5
:00000001FF