:400000000080002011000000E5030000E503000008B5044B1A6803F53F5302331A6000F0E9F900BFFA46004010B5054C237833B9044B13B10448AFF300800123237010BDC5
:40004000F881FF1F0000000040110000084B10B51BB108490848AFF300800848036803B910BD074B002BFBD0BDE81040184700BF00000000FC81FF1F40110000C880FF1F00
:400080000000000008B5002000F08CFB08BD00BF684620F007018D4619B572B6EFF311841E4B1B68DBB20F2B10D9103B23F0030202F1604202F564421168DB0003F01803CF
:4000C000E0229A400A4022FA03F306E00F2B03D1134B1B681B0E00E0002383F31188114A136801331360012B01D100F077FE62B6FFF7C8FF72B684F3118800F0F7FB094A96
:400100001368013B13601BB900F071FE00F035FE62B6BDE819408546704700BF04ED00E020ED00E05082FF1F08B562B6002000F0CBFCFBE708B500F00DFD08BD10B5002447
:4001400007E00A4B53F82430984708B100BFFDE70134012CF5D900F01BFD01221146002000F0A2F900F0F6FC10BD00BF4411000008B500F08FFD002008BD00BF10B50C4655
:4001800000F0D0FD04F00F04024B185D00F0E2FD002010BD4C11000010B5044600F00F010020FFF7EBFF21090120FFF7E7FF002010BD00BF08B5012000F0C0FD0020FFF71D
:4001C000EBFF002008BD00BFFEE700BFF0B40022174611E050F82760F3B226F0FF0608E001EB420511F812406D78A5550132013BDBB2002BF4D10137162FEBD9F0BC704745
:40020000064B1B78DBB203F00701054A11701B09013213704422034B1A707047CF0100496E5800407658004008B50A46002100F07EFF08BD38B51925234B1D801822023381
:400240001A70022203F27E231A7008224FF040231A70032103F5007319701C4B1B78DBB21B490B701B4B1A8041F25122023B1A8000240CE0184B1B7803F0010343EA4404ED
:4002800004F003044FF4F07000F02EFE013D0DB1032CEFD115B90320FFF796FF0F4B4FF480721A8007221A7000220D490A704820023108701A700222033B1A70094A1378E8
:4002C00043F00103137038BD8040004008010049A146004022420040254200400440004006400040A243004008B500F015FF08BD38B572B600240CE02A4D630019194A005B
:4003000011462A44084691882858FFF78DFF0134E4B2072CF0D924494FF09040FFF756FF224A137843F0020313701032137843F0020313701E4C237843F040032370A2F522
:400340008632513A137843F010031370082219491948FFF7C9FF0A2218491948FFF7C4FF082218491848FFF7BFFF082217491848FFF7BAFF174A137843F008031370164D4C
:4003800061232B70FFF756FF81232B700122134B1A70FFF735FF0E2221461148FFF7A4FF38BD00BF601100005C00004803500140A0430040D004004802510040D804004883
:4003C000C0510040E404004812510040EC04004832510040224300400048004004000840B043004008B500F06BFE03680C2B00D1FEE7FEE708B5104E104D16E029686B680D
:40040000AC68002204E051F8040B43F8040B0432A242F8D1E868002203E0002143F8041B04328242F9D11035013E002EE6D100F04DFEFFF779FEFEE701000000301300004F
:4004400008B5104A104B1A60104A136843F40073136000230AE0032B03D80D4A52F8231000E00C490C4A42F8231001332F2BF2D90A4B1A780A4B1A70074A0A4B1A60FFF787
:4004800037FF08BD0004FA050CED00E014ED00E000000000E50300000080FF1FBC760040C080FF1F08ED00E0F8B5EFF3108472B628BB00EB4005AB00184DEB5803EB430671
:4004C000B500174E75598D421BD34AB103EB43039E00134B1E44B3689A4214D3954214D3A9B103010F4DEB589BB90301EE180127EF507260013900F087F800200AE00320C4
:4005000008E0082006E0082004E0082002E0082000E0072084F31088F8BD00BFB0120000C01200006882FF1F18B108B5C368984708BD704708B508B1406800E0002001280E
:4005400016D80C4B53F8203093B10A4A013B42F82030094B53F82030032B07D10222064B43F820200022054B43F8202000F02EFA08BD00BFEC80FF1F8081FF1F2482FF1F62
:4005800018B1034640689B6801E00023184601281DD80F4A52F82020CAB10E4A52F82010032914D010B50C4C54F820201A4344F820200A4A52F82020134207D0012905D132
:4005C0000222044B43F8202000F000FA10BD7047CC1200008081FF1F2482FF1F1C82FF1F80B108B50378012B06D013B1032B06D008BDFFF79FFF08BDFFF7C2FF08BDFFF75F
:4006000093FF08BD704700BF30B400EB40029300214AD258214B03EBC2035C68B4F1FF3F04D11E4B03EBC20250602DE01C4B03EB04139B6899420AD2184D05EBC202506052
:40064000174A02EB04125B1A93601DE01C46144B03EB04139A68891ADB68B3F1FF3F05D00F4A02EB031292689142EFD2B3F1FF3F05D00B4A02EB031295686D1A9560084A8A
:4006800002EB0414E0601C46054B03EB00108160C46030BC704700BFB0120000CC80FF1F6882FF1F38B5394A02EBC0035C6852F83030013342F8303000EB40018A0034491B
:4006C0008A58934203D90022304B43F83020B4F1FF3F59D02F4B03EB04139B68002B4ED1214600E019462B4B03EB0113DB68B3F1FF3F05D0274A02EB03129268002AF1D0F7
:40070000244A02EB01114FF0FF32CA601F4A02EBC0004360B3F1FF3F07D01E4A02EB03139A68013A9A6000E02C4604EB44029300194A13441B7A7BB904EB44029300164AD9
:4007400013445A68154B53F8223003EB83039A0013481044FFF744FF0E4B03EB0413DD68596821B101392046FFF74EFF03E024010022084B1A51B5F1FF3FD5D138BD054A9E
:4007800002EB0414013BA36038BD00BFCC80FF1FC01200006882FF1FB0120000BC1200009C12000038B5EFF3108572B6002838D1FFF778FF204B1B68002B34D11F4B1C6889
:4007C00000F0E2F8B0F1FF3F2FD01D4B53F820201C4B1B689A422AD9B4F1FF3F03D00221194A42F82410194A52F820201343154A13600022144B43F8202000F081F8144B12
:4008000053F820304BB10024114B43F8204040F0004000F0F5FA20460AE000F0F1FA002006E0032004E0002002E0002000E0002085F3108838BD00BF5082FF1F7481FF1F96
:40084000E41200003482FF1F8081FF1FDC1200001482FF1F08B500F053F8084B53F8203043B10022054B43F8202040F00040044B186008BD024B186008BD00BF1482FF1F2D
:400880005482FF1F10B500F07FF8124B1B68B0F1FF3F1AD0104A52F82010104A1268914213D9B3F1FF3F03D002240D4941F8234000210B4B43F820100A4B53F820301A430C
:4008C000064B1A60FFF7C6FF10BD43F00043064A136010BD7481FF1FE41200003482FF1F8081FF1FDC1200005482FF1F034B1B6813B10022014B1A60704700BF4482FF1FEA
:40090000F0B4184B19880B0A174AD356B3F1FF3F01D1535601E008335BB2144D55F82320134850F82200134E56F8224045F82340114D2F6846F822702A60B4F1FF3F09D177
:400940000E4A42F82340012202FA03F321EA0301044B19800A4B19680A4A42F820101860F0BC70473082FF1F901100003481FF1F5882FF1FDC80FF1F2C82FF1FF480FF1FF3
:400980007481FF1F7881FF1F0C4B1A88130A0C49CB56B3F1FF3F01D18B5601E008335BB2B3F1FF3F06D0074A52F82320064B53F8220070474FF0FF30704700BF3082FF1F04
:4009C000901100003481FF1F5882FF1F30B4144B53F82020134C2368134951F823502560124C44F823004FF0FF3441F82340104951F82210A1420AD10E4951F820400E4883
:400A00000188214301800D4941F8223002E0064840F82130064941F8223030BC704700BFE480FF1F2C82FF1FDC80FF1F5882FF1FF480FF1FE41200003082FF1F3481FF1F87
:400A400010B150F8210070474FF0FF30704700BF0122014B1A60FEE74C82FF1F70B50546124B53F8306000241CE0104B03EBC50321465868FFF7E4FF0D4A52F82030013BF1
:400A800042F820300B4B53F82030032B07D10222084B43F820200022074B43F82020FFF795FF0134B442E0D370BD00BF90120000EC80FF1F8081FF1F2482FF1F18B908B5E3
:400AC000FFF7CCFF08BD7047194B1A4ADA621A4A9A631A4ADA63EFF3108272B6184B1B6813BB10B5044600F053F8164B1C600122134B1A602046FFF7E1FFFFF745FFB0F12A
:400B0000FF3F0ED0104B53F82030104A11680B43136000220E4B43F82020FFF7F1FE00F06FF962B6FFF794FF82F31088072070470080FF1FC10D0000850D000091000000C1
:400B40004C82FF1F7882FF1FDC1200003482FF1F8081FF1F08B5EFF3108272B6094B1968094B1B6833B94FF0FF30084B43F82100002000E0022010B9084600F09AF982F351
:400B8000108808BD7481FF1F5082FF1FD480FF1F10B5EFF3108472B600F0E2F8034A136843F07F43136084F3108810BD20ED00E001BE704770B504460E46074B1D681F28E6
:400BC00002D90020FFF7F4FF04F01F04103455F8240045F8246070BD08ED00E038B504460D46072902D90020FFF7E2FF1F2C02D90020FFF7DDFF04F01F0000F1604000F545
:400C000064406D01EDB2057038BD00BF08B572220B4B1A702022FD3B1A700A490020FFF7C9FF07210020FFF7D9FF0622064B1A70472210331A700222B13B1A7008BD00BF07
:400C400088650040B10C00002965004010B500F053F904460D4A137843F020031370FD3A137843F010031370033A137843F0100313700123064A1360A2F5C072136000F087
:400C800043F8204600F03CF910BD00BF9865004080E200E008B5054B1B7823B9FFF7B6FF0122024B1A70FFF7D1FF08BD4082FF1F13E0104B1B78DBB20F2B02D900220D4BDA
:400CC0001A700C4A1378DBB20B49CB5CDBB20B490B7013780133DBB21370064B1B78DBB2074A1278934204D0064B1B7813F0040FDFD070474182FF1F7C84FF1F4864004016
:400D00004282FF1F68640040054A137843F0010313701032137843F001031370704700BFA2430040044A137803F0DF03400100F0200018431070704730510040044A1378E4
:400D400003F0FE0300F0010018431070704700BF10510040014B1870704700BF7965004018484FF47F0102680A43026016486FF07F4102680A400260704714484FF0805142
:400D80000160704772B611484FF000610160FFF779FD0F48006800F0D3F858B10C4800684FF080730B4A0C490FB40FB46FF00600004700BF6FF0060062B6004762B600DF66
:400DC00008B0704720ED00E01CED00E004ED00E05482FF1F010E0000BD0D0000EFF30880054908600548006880F3088870470248006880F3088870478C81FF1F8881FF1FC3
:400E0000411C8900154A11440968154A136899421AD0F0B444464D4656465F46F0B400B5104C9B002344EFF308851D60116089002144096881F3088802BC8E46F0BCA0466B
:400E4000A946B246BB46F0BC002806DB00B500F06BF802BC8E46FFF7D3BF7047FC1200003882FF1F3C82FF1FF0B444464D4656465F46F0B400B5EFF3038308B480001749DB
:400E800001440968164A0244EFF30883136088471448804704BC4FF08070024382F3038801BC8646F0BCA046A946B246BB46F0BC704780000A4901440A6882F3088804BC1B
:400EC0004FF08070024382F3038808BC9E46F0BCA046A946B246BB46F0BC7047EC1200006082FF1F090F00000230800803D000BF01380046FCD17047EFF3108072B6704743
:400F000080F31088704700BF08B572B6014B1868FFF7CFFF7481FF1F08B5024B1868FFF7A3FF08BD7481FF1F08B562B6FFF7F4FF72B600F041F8014B186808BD5482FF1F1A
:400F400000280BDA20F000400130054B53F82000044B1B68181A18BF0120704701207047FC1200003882FF1F054B53F82020054B53F820309A4201D1012070470020704794
:400F8000EC80FF1FD412000008B5FFF7B9FC084B53F8203043B10022054B43F8202040F00040044B186008BD024B186008BD00BF1482FF1F5482FF1F38B5364B1C68002289
:400FC000354B1A60354A52F82430013342F82430334B53F824502046FFF7C6FF012801D0A54204D103222F4B43F8242003E002222C4B43F824202C4B53F824102B4A136803
:4010000023EA010313602A4B53F82440214B1C60B5F1FF3F0FD0234B53F82530032B07D10222204B43F825200022224B43F825202846FFF7CBFCFFF7A7FCB0F1FF3F0BD1AC
:40104000B4F1FF3F03D00022164B43F8242044F00044194B1C6038BD184B53F82020134B1B689A4208D800220E4B43F8242044F00044114B1C6038BD00210A4A42F82010C2
:40108000094A52F820201343084A1360FFF77CFF38BD00BF7481FF1F4482FF1FEC80FF1FD480FF1F8081FF1FDC1200003482FF1F7881FF1F2482FF1F5482FF1FE41200007A
:4010C000014B1868704700BFF081FF1F0E4B70B51E460E4C0025E41AA410A54204D056F8253098470135F8E700F010F9084B094C1E46E41AA4100025A54204D056F8253080
:4011000098470135F8E770BD1813000018130000181300002013000010B5431E0A44914204D011F8014B03F8014FF8E710BD03460244934202D003F8011BFAE7704700008E
:401140000000000071010000B50100003F065B4F666D7D077F6F777C395E797100000000205100401000405100403000F0510040100000000140001000140140000800405E
:401180000140000A004C01400002005001402000FF0001010202020203030303030303030404040404040404040404040404040405050505050505050505050505050505F3
:4011C000050505050505050505050505050505050606060606060606060606060606060606060606060606060606060606060606060606060606060606060606060606067F
:4012000006060606060606060606060606060606070707070707070707070707070707070707070707070707070707070707070707070707070707070707070707070707FE
:4012400007070707070707070707070707070707070707070707070707070707070707070707070707070707070707070707070707070707070707070707070707070707AE
:401280000707070707070707070707070707070701000000981200000000000000000000010000000000000000000000FFFFFFFF0000000000000000000000000000000016
:4012C00010270000000000000100000000000000000000000100000001000000800000000200000001000000020000003D01000035010000190F0000190F0000000000006B
:40130000000000000000000043000000F8B500BFF8BC08BC9E4670474D00000041040000F8B500BFF8BC08BC9E4670472900000040130000C880FF1F30010000980200002D
:401340000000000000000000FFFFFFFFFFFFFFFFFFFFFFFF01000000FFFFFFFF00000000010000000100000001000000FFFFFFFFFFFFFFFFFFFFFFFFFFFFFFFFFFFFFFFF8D
:40138000FFFFFFFFFFFFFFFFFFFFFFFFFFFFFFFFFFFFFFFFFFFFFFFFFFFFFFFFFFFFFFFFFFFFFFFFFFFFFFFFFFFFFFFFFFFFFFFFFFFFFFFFFFFFFFFFFFFFFFFFFFFFFFFF6D
:4013C000FFFFFFFFFFFFFFFFFFFFFFFFFFFFFFFFFFFFFFFFFFFFFFFFFFFFFFFFFFFFFFFFFFFFFFFFFFFFFFFFFFFFFFFFFFFFFFFFFFFFFFFFFFFFFFFF03000000030000001F
:401400007C84FF1F00000000000000000000000000000000000000000000000000000000000000000000000008130000000000000000000000000000000000000000000073
:40144000000000000000000000000000000000000000000000000000000000000000000000000000000000009081FF1F00000000000000000000000000000000000000003D
:40148000000000000000000000000000000000000000000000000000000000000000000000000000000000000000000000000000000000000000000000000000000000002C
:4014C00000000000000000000000000000000000000000000000000000000000000000000000000000000000000000000000000000000000000000000000000000000000EC
:4015000000000000000000000000000000000000000000000000000000000000000000000000000000000000000000000000000000000000000000000000000000000000AB
:40154000000000000000000000000000000000000000000000000000000000000000000000000000000000000000000000000000000000000000000000000000000000006B
:020000040003F7
:0200000480007A
:40000000045200400264004001650040010301400105014002070140420801403C090140380A0140320B0140010D014043180140431901404C1A0140431B014003400140A4
:400040000741014004420140054301400B4C01400D4D014004500140015101400868093461806440880F8B388872E404E404E602EE040703080109030B0C0D08110F150CD0
:40008000160119041D0C1E011F032103220124012501290F2C022D0230013402350F3B203E1140264103460C47EB483449FF4AFF4BFF4EF04F44500C54015604580459040C
:4000C0005A045B045F0166C06A406B02860889019502960599019C0A9E04A003A204A403A604A803AA0CAF01B20FB503B920BA08D804D904DF010220042006040840091869
:400100000B040C480F02101012441412164118201E882220251027042B012D182E4130183524368238203C403D283E08441046044C08564157085C025E885F106740874017
:40014000904C911097049D249E0A9F04A101A202A681A742AA04B140B304C044C2A5C4BECAF8CCF6CE74D060D220D6F0D8800001050108011301150128012C012F013401C7
:40018000350139203E10580459045F018004821884188502870C8808890E8C108D08910C92029302941C950C9A049B019E02A01CA10CA302A401A702A801A904AC18AE0404
:4001C000AF01B10EB202B301B401B61CB820BB22BE14BF04D418D804D904DB04DF0102C003840441052406020E250F801130120214281640174018041E091F042220240860
:400200002518261227402A402D202E0C2F82320233043504362238083C403D223E013F04450846205E026540662080208C018F049808C0FAC2F0C4F3CAF8CCE3CE72D680DF
:40024000D830800804010518060209070B181004111912021302151F18071B061C021D191E051F0421102407270129082D013607371F3B8056025712580459045B045F01B2
:40028000860C89038C0C8E039603970199039E08A401A60EA801AA06AD02B00FB703B980BA02BF40C005C540C9FFCA07CBFFCC40CD20CEF0CF05D008D804D904DA04DB04B0
:4002C000DF01E040E1A8E240E320004002E0050809080B010E4510101204170418401B011E01200226802B012D602E022F10301831103501368A372038203C083D204801C5
:400300004B014C044E08500851085C0469266A806E046F05708072287404752476028208902C96419A049C109D2C9E02A111A222A308A408A50CA681A743B240B310C0254F
:40034000C2D5C426CAF8CCF6CE64D208D640E40105100603070C0C060D1C0E010F021008130315141601190C1B11211022022509260627102A053008311F34073A203E01B5
:40038000580459045F01826085018660880690449101920A9460950198069C609E10A260A860AC22AE0DB006B260B301B401B618BE40C023C106C204C401C60CC7E0C8244A
:4003C000C9FFCAFFCBFFCC62CDA0CEF0CF41D00CD804D904DA04DF01E640E702E910EA30EB10ED10EE10EF12004405010724090A0E450F1010501224130115401640171057
:40040000180419121D841E401F10210225042720285031123308370538403A043E04459547104C044F105742810682018D4890489205930195409640972099019A449B05B5
:400440009D189F20A119A220A308A504A601A742AC80AD04B111B660C075C2FCC4DECA03CCC7CE4AD0F0D220E404E808EC0232203680CC3005100A208110A6A0C080C21042
:40048000E42082109220A6A0E4208620A620AA80E640EE205080562059045B405F04634066088340D407D603D8031280700180018E80AE28B344B480B504C408DC01E20203
:4004C000E80CEC0600010C0110011C01000F0000180000000000000080004080800080000000000000FFFF00FE000000002020000000000000000000000000000000000037
:4005000000000000000000000000000000000000000000000000000000000000000000000000000000000000000000000000000000000000000000000000000000000000BB
:40054000000000000000000000000000000000000000000000000000000000000000000000000000000000000000000000000000000000000000000000000000000000007B
:40058000000000000000000000000000000000000000000000000000000000000000000000000000000000000000000000000000000000000000000000000000000000003B
:4005C00000000000000000000000000000000000000000000000000000000000000000000000000000000000000000000000000000000000000000000000000000000000FB
:0200000490006A
:0400000000004007B5
:0200000490105A
:04000000BC90ACAF55
:0200000490303A
:02000000A18ECF
:0200000490402A
:4000000000000000000000000000000000000000000000000000000000000000000000000000000000000000000000000000000000000000000000000000000000000000C0
:400040000000000000000000000000000000000000000000000000000000000000000000000000000000000000000000000000000000000000000000000000000000000080
:400080000000000000000000000000000000000000000000000000000000000000000000000000000000000000000000000000000000000000000000000000000000000040
:4000C0000000000000000000000000000000000000000000000000000000000000000000000000000000000000000000000000000000000000000000000000000000000000
:0200000490501A
:0C00000000012E16106900012E1EB1F741
:00000001FF